{
  "_format": "hh-sol-artifact-1",
  "contractName": "AnkrAvalancheNFT",
  "sourceName": "contracts/NFT.sol",
  "abi": [
    {
      "inputs": [],
      "stateMutability": "nonpayable",
      "type": "constructor"
    },
    {
      "anonymous": false,
      "inputs": [
        {
          "indexed": true,
          "internalType": "address",
          "name": "owner",
          "type": "address"
        },
        {
          "indexed": true,
          "internalType": "address",
          "name": "approved",
          "type": "address"
        },
        {
          "indexed": true,
          "internalType": "uint256",
          "name": "tokenId",
          "type": "uint256"
        }
      ],
      "name": "Approval",
      "type": "event"
    },
    {
      "anonymous": false,
      "inputs": [
        {
          "indexed": true,
          "internalType": "address",
          "name": "owner",
          "type": "address"
        },
        {
          "indexed": true,
          "internalType": "address",
          "name": "operator",
          "type": "address"
        },
        {
          "indexed": false,
          "internalType": "bool",
          "name": "approved",
          "type": "bool"
        }
      ],
      "name": "ApprovalForAll",
      "type": "event"
    },
    {
      "anonymous": false,
      "inputs": [
        {
          "indexed": true,
          "internalType": "address",
          "name": "previousOwner",
          "type": "address"
        },
        {
          "indexed": true,
          "internalType": "address",
          "name": "newOwner",
          "type": "address"
        }
      ],
      "name": "OwnershipTransferred",
      "type": "event"
    },
    {
      "anonymous": false,
      "inputs": [
        {
          "indexed": true,
          "internalType": "address",
          "name": "from",
          "type": "address"
        },
        {
          "indexed": true,
          "internalType": "address",
          "name": "to",
          "type": "address"
        },
        {
          "indexed": true,
          "internalType": "uint256",
          "name": "tokenId",
          "type": "uint256"
        }
      ],
      "name": "Transfer",
      "type": "event"
    },
    {
      "inputs": [
        {
          "internalType": "address",
          "name": "to",
          "type": "address"
        },
        {
          "internalType": "uint256",
          "name": "tokenId",
          "type": "uint256"
        }
      ],
      "name": "approve",
      "outputs": [],
      "stateMutability": "nonpayable",
      "type": "function"
    },
    {
      "inputs": [
        {
          "internalType": "address",
          "name": "owner",
          "type": "address"
        }
      ],
      "name": "balanceOf",
      "outputs": [
        {
          "internalType": "uint256",
          "name": "",
          "type": "uint256"
        }
      ],
      "stateMutability": "view",
      "type": "function"
    },
    {
      "inputs": [
        {
          "internalType": "uint256",
          "name": "tokenId",
          "type": "uint256"
        }
      ],
      "name": "getApproved",
      "outputs": [
        {
          "internalType": "address",
          "name": "",
          "type": "address"
        }
      ],
      "stateMutability": "view",
      "type": "function"
    },
    {
      "inputs": [
        {
          "internalType": "address",
          "name": "owner",
          "type": "address"
        },
        {
          "internalType": "address",
          "name": "operator",
          "type": "address"
        }
      ],
      "name": "isApprovedForAll",
      "outputs": [
        {
          "internalType": "bool",
          "name": "",
          "type": "bool"
        }
      ],
      "stateMutability": "view",
      "type": "function"
    },
    {
      "inputs": [
        {
          "internalType": "address",
          "name": "recipient",
          "type": "address"
        },
        {
          "internalType": "string",
          "name": "tokenURI",
          "type": "string"
        }
      ],
      "name": "mint",
      "outputs": [
        {
          "internalType": "uint256",
          "name": "",
          "type": "uint256"
        }
      ],
      "stateMutability": "nonpayable",
      "type": "function"
    },
    {
      "inputs": [],
      "name": "name",
      "outputs": [
        {
          "internalType": "string",
          "name": "",
          "type": "string"
        }
      ],
      "stateMutability": "view",
      "type": "function"
    },
    {
      "inputs": [],
      "name": "owner",
      "outputs": [
        {
          "internalType": "address",
          "name": "",
          "type": "address"
        }
      ],
      "stateMutability": "view",
      "type": "function"
    },
    {
      "inputs": [
        {
          "internalType": "uint256",
          "name": "tokenId",
          "type": "uint256"
        }
      ],
      "name": "ownerOf",
      "outputs": [
        {
          "internalType": "address",
          "name": "",
          "type": "address"
        }
      ],
      "stateMutability": "view",
      "type": "function"
    },
    {
      "inputs": [],
      "name": "renounceOwnership",
      "outputs": [],
      "stateMutability": "nonpayable",
      "type": "function"
    },
    {
      "inputs": [
        {
          "internalType": "address",
          "name": "from",
          "type": "address"
        },
        {
          "internalType": "address",
          "name": "to",
          "type": "address"
        },
        {
          "internalType": "uint256",
          "name": "tokenId",
          "type": "uint256"
        }
      ],
      "name": "safeTransferFrom",
      "outputs": [],
      "stateMutability": "nonpayable",
      "type": "function"
    },
    {
      "inputs": [
        {
          "internalType": "address",
          "name": "from",
          "type": "address"
        },
        {
          "internalType": "address",
          "name": "to",
          "type": "address"
        },
        {
          "internalType": "uint256",
          "name": "tokenId",
          "type": "uint256"
        },
        {
          "internalType": "bytes",
          "name": "_data",
          "type": "bytes"
        }
      ],
      "name": "safeTransferFrom",
      "outputs": [],
      "stateMutability": "nonpayable",
      "type": "function"
    },
    {
      "inputs": [
        {
          "internalType": "address",
          "name": "operator",
          "type": "address"
        },
        {
          "internalType": "bool",
          "name": "approved",
          "type": "bool"
        }
      ],
      "name": "setApprovalForAll",
      "outputs": [],
      "stateMutability": "nonpayable",
      "type": "function"
    },
    {
      "inputs": [
        {
          "internalType": "bytes4",
          "name": "interfaceId",
          "type": "bytes4"
        }
      ],
      "name": "supportsInterface",
      "outputs": [
        {
          "internalType": "bool",
          "name": "",
          "type": "bool"
        }
      ],
      "stateMutability": "view",
      "type": "function"
    },
    {
      "inputs": [],
      "name": "symbol",
      "outputs": [
        {
          "internalType": "string",
          "name": "",
          "type": "string"
        }
      ],
      "stateMutability": "view",
      "type": "function"
    },
    {
      "inputs": [
        {
          "internalType": "uint256",
          "name": "tokenId",
          "type": "uint256"
        }
      ],
      "name": "tokenURI",
      "outputs": [
        {
          "internalType": "string",
          "name": "",
          "type": "string"
        }
      ],
      "stateMutability": "view",
      "type": "function"
    },
    {
      "inputs": [
        {
          "internalType": "address",
          "name": "from",
          "type": "address"
        },
        {
          "internalType": "address",
          "name": "to",
          "type": "address"
        },
        {
          "internalType": "uint256",
          "name": "tokenId",
          "type": "uint256"
        }
      ],
      "name": "transferFrom",
      "outputs": [],
      "stateMutability": "nonpayable",
      "type": "function"
    },
    {
      "inputs": [
        {
          "internalType": "address",
          "name": "newOwner",
          "type": "address"
        }
      ],
      "name": "transferOwnership",
      "outputs": [],
      "stateMutability": "nonpayable",
      "type": "function"
    }
  ],
  "bytecode": "0x60806040523480156200001157600080fd5b506040518060400160405280600781526020017f4d5354434e4654000000000000000000000000000000000000000000000000008152506040518060400160405280600581526020017f4d53544358000000000000000000000000000000000000000000000000000000815250816000908051906020019062000096929190620001a6565b508060019080519060200190620000af929190620001a6565b505050620000d2620000c6620000d860201b60201c565b620000e060201b60201c565b620002bb565b600033905090565b6000600760009054906101000a900473ffffffffffffffffffffffffffffffffffffffff16905081600760006101000a81548173ffffffffffffffffffffffffffffffffffffffff021916908373ffffffffffffffffffffffffffffffffffffffff1602179055508173ffffffffffffffffffffffffffffffffffffffff168173ffffffffffffffffffffffffffffffffffffffff167f8be0079c531659141344cd1fd0a4f28419497f9722a3daafe3b4186f6b6457e060405160405180910390a35050565b828054620001b49062000256565b90600052602060002090601f016020900481019282620001d8576000855562000224565b82601f10620001f357805160ff191683800117855562000224565b8280016001018555821562000224579182015b828111156200022357825182559160200191906001019062000206565b5b50905062000233919062000237565b5090565b5b808211156200025257600081600090555060010162000238565b5090565b600060028204905060018216806200026f57607f821691505b602082108114156200028657620002856200028c565b5b50919050565b7f4e487b7100000000000000000000000000000000000000000000000000000000600052602260045260246000fd5b612fe680620002cb6000396000f3fe608060405234801561001057600080fd5b506004361061010b5760003560e01c8063715018a6116100a2578063b88d4fde11610071578063b88d4fde146102a4578063c87b56dd146102c0578063d0def521146102f0578063e985e9c514610320578063f2fde38b146103505761010b565b8063715018a6146102425780638da5cb5b1461024c57806395d89b411461026a578063a22cb465146102885761010b565b806323b872dd116100de57806323b872dd146101aa57806342842e0e146101c65780636352211e146101e257806370a08231146102125761010b565b806301ffc9a71461011057806306fdde0314610140578063081812fc1461015e578063095ea7b31461018e575b600080fd5b61012a60048036038101906101259190611f95565b61036c565b60405161013791906123e1565b60405180910390f35b61014861044e565b60405161015591906123fc565b60405180910390f35b61017860048036038101906101739190611fe7565b6104e0565b604051610185919061237a565b60405180910390f35b6101a860048036038101906101a39190611f59565b610565565b005b6101c460048036038101906101bf9190611dff565b61067d565b005b6101e060048036038101906101db9190611dff565b6106dd565b005b6101fc60048036038101906101f79190611fe7565b6106fd565b604051610209919061237a565b60405180910390f35b61022c60048036038101906102279190611d9a565b6107af565b604051610239919061265e565b60405180910390f35b61024a610867565b005b6102546108ef565b604051610261919061237a565b60405180910390f35b610272610919565b60405161027f91906123fc565b60405180910390f35b6102a2600480360381019061029d9190611ec9565b6109ab565b005b6102be60048036038101906102b99190611e4e565b6109c1565b005b6102da60048036038101906102d59190611fe7565b610a23565b6040516102e791906123fc565b60405180910390f35b61030a60048036038101906103059190611f05565b610b75565b604051610317919061265e565b60405180910390f35b61033a60048036038101906103359190611dc3565b610bad565b60405161034791906123e1565b60405180910390f35b61036a60048036038101906103659190611d9a565b610c41565b005b60007f80ac58cd000000000000000000000000000000000000000000000000000000007bffffffffffffffffffffffffffffffffffffffffffffffffffffffff1916827bffffffffffffffffffffffffffffffffffffffffffffffffffffffff1916148061043757507f5b5e139f000000000000000000000000000000000000000000000000000000007bffffffffffffffffffffffffffffffffffffffffffffffffffffffff1916827bffffffffffffffffffffffffffffffffffffffffffffffffffffffff1916145b80610447575061044682610d39565b5b9050919050565b60606000805461045d906128b4565b80601f0160208091040260200160405190810160405280929190818152602001828054610489906128b4565b80156104d65780601f106104ab576101008083540402835291602001916104d6565b820191906000526020600020905b8154815290600101906020018083116104b957829003601f168201915b5050505050905090565b60006104eb82610da3565b61052a576040517f08c379a0000000000000000000000000000000000000000000000000000000008152600401610521906125be565b60405180910390fd5b6004600083815260200190815260200160002060009054906101000a900473ffffffffffffffffffffffffffffffffffffffff169050919050565b6000610570826106fd565b90508073ffffffffffffffffffffffffffffffffffffffff168373ffffffffffffffffffffffffffffffffffffffff1614156105e1576040517f08c379a00000000000000000000000000000000000000000000000000000000081526004016105d89061261e565b60405180910390fd5b8073ffffffffffffffffffffffffffffffffffffffff16610600610e0f565b73ffffffffffffffffffffffffffffffffffffffff16148061062f575061062e81610629610e0f565b610bad565b5b61066e576040517f08c379a0000000000000000000000000000000000000000000000000000000008152600401610665906124fe565b60405180910390fd5b6106788383610e17565b505050565b61068e610688610e0f565b82610ed0565b6106cd576040517f08c379a00000000000000000000000000000000000000000000000000000000081526004016106c49061263e565b60405180910390fd5b6106d8838383610fae565b505050565b6106f8838383604051806020016040528060008152506109c1565b505050565b6000806002600084815260200190815260200160002060009054906101000a900473ffffffffffffffffffffffffffffffffffffffff169050600073ffffffffffffffffffffffffffffffffffffffff168173ffffffffffffffffffffffffffffffffffffffff1614156107a6576040517f08c379a000000000000000000000000000000000000000000000000000000000815260040161079d9061253e565b60405180910390fd5b80915050919050565b60008073ffffffffffffffffffffffffffffffffffffffff168273ffffffffffffffffffffffffffffffffffffffff161415610820576040517f08c379a00000000000000000000000000000000000000000000000000000000081526004016108179061251e565b60405180910390fd5b600360008373ffffffffffffffffffffffffffffffffffffffff1673ffffffffffffffffffffffffffffffffffffffff168152602001908152602001600020549050919050565b61086f610e0f565b73ffffffffffffffffffffffffffffffffffffffff1661088d6108ef565b73ffffffffffffffffffffffffffffffffffffffff16146108e3576040517f08c379a00000000000000000000000000000000000000000000000000000000081526004016108da906125de565b60405180910390fd5b6108ed6000611215565b565b6000600760009054906101000a900473ffffffffffffffffffffffffffffffffffffffff16905090565b606060018054610928906128b4565b80601f0160208091040260200160405190810160405280929190818152602001828054610954906128b4565b80156109a15780601f10610976576101008083540402835291602001916109a1565b820191906000526020600020905b81548152906001019060200180831161098457829003601f168201915b5050505050905090565b6109bd6109b6610e0f565b83836112db565b5050565b6109d26109cc610e0f565b83610ed0565b610a11576040517f08c379a0000000000000000000000000000000000000000000000000000000008152600401610a089061263e565b60405180910390fd5b610a1d84848484611448565b50505050565b6060610a2e82610da3565b610a6d576040517f08c379a0000000000000000000000000000000000000000000000000000000008152600401610a649061259e565b60405180910390fd5b6000600660008481526020019081526020016000208054610a8d906128b4565b80601f0160208091040260200160405190810160405280929190818152602001828054610ab9906128b4565b8015610b065780601f10610adb57610100808354040283529160200191610b06565b820191906000526020600020905b815481529060010190602001808311610ae957829003601f168201915b505050505090506000610b176114a4565b9050600081511415610b2d578192505050610b70565b600082511115610b62578082604051602001610b4a929190612356565b60405160208183030381529060405292505050610b70565b610b6b846114bb565b925050505b919050565b6000610b816008611562565b6000610b8d6008611578565b9050610b998482611586565b610ba381846115a4565b8091505092915050565b6000600560008473ffffffffffffffffffffffffffffffffffffffff1673ffffffffffffffffffffffffffffffffffffffff16815260200190815260200160002060008373ffffffffffffffffffffffffffffffffffffffff1673ffffffffffffffffffffffffffffffffffffffff16815260200190815260200160002060009054906101000a900460ff16905092915050565b610c49610e0f565b73ffffffffffffffffffffffffffffffffffffffff16610c676108ef565b73ffffffffffffffffffffffffffffffffffffffff1614610cbd576040517f08c379a0000000000000000000000000000000000000000000000000000000008152600401610cb4906125de565b60405180910390fd5b600073ffffffffffffffffffffffffffffffffffffffff168173ffffffffffffffffffffffffffffffffffffffff161415610d2d576040517f08c379a0000000000000000000000000000000000000000000000000000000008152600401610d249061243e565b60405180910390fd5b610d3681611215565b50565b60007f01ffc9a7000000000000000000000000000000000000000000000000000000007bffffffffffffffffffffffffffffffffffffffffffffffffffffffff1916827bffffffffffffffffffffffffffffffffffffffffffffffffffffffff1916149050919050565b60008073ffffffffffffffffffffffffffffffffffffffff166002600084815260200190815260200160002060009054906101000a900473ffffffffffffffffffffffffffffffffffffffff1673ffffffffffffffffffffffffffffffffffffffff1614159050919050565b600033905090565b816004600083815260200190815260200160002060006101000a81548173ffffffffffffffffffffffffffffffffffffffff021916908373ffffffffffffffffffffffffffffffffffffffff160217905550808273ffffffffffffffffffffffffffffffffffffffff16610e8a836106fd565b73ffffffffffffffffffffffffffffffffffffffff167f8c5be1e5ebec7d5bd14f71427d1e84f3dd0314c0f7b2291e5b200ac8c7c3b92560405160405180910390a45050565b6000610edb82610da3565b610f1a576040517f08c379a0000000000000000000000000000000000000000000000000000000008152600401610f11906124de565b60405180910390fd5b6000610f25836106fd565b90508073ffffffffffffffffffffffffffffffffffffffff168473ffffffffffffffffffffffffffffffffffffffff161480610f675750610f668185610bad565b5b80610fa557508373ffffffffffffffffffffffffffffffffffffffff16610f8d846104e0565b73ffffffffffffffffffffffffffffffffffffffff16145b91505092915050565b8273ffffffffffffffffffffffffffffffffffffffff16610fce826106fd565b73ffffffffffffffffffffffffffffffffffffffff1614611024576040517f08c379a000000000000000000000000000000000000000000000000000000000815260040161101b9061245e565b60405180910390fd5b600073ffffffffffffffffffffffffffffffffffffffff168273ffffffffffffffffffffffffffffffffffffffff161415611094576040517f08c379a000000000000000000000000000000000000000000000000000000000815260040161108b9061249e565b60405180910390fd5b61109f838383611618565b6110aa600082610e17565b6001600360008573ffffffffffffffffffffffffffffffffffffffff1673ffffffffffffffffffffffffffffffffffffffff16815260200190815260200160002060008282546110fa91906127ca565b925050819055506001600360008473ffffffffffffffffffffffffffffffffffffffff1673ffffffffffffffffffffffffffffffffffffffff16815260200190815260200160002060008282546111519190612743565b92505081905550816002600083815260200190815260200160002060006101000a81548173ffffffffffffffffffffffffffffffffffffffff021916908373ffffffffffffffffffffffffffffffffffffffff160217905550808273ffffffffffffffffffffffffffffffffffffffff168473ffffffffffffffffffffffffffffffffffffffff167fddf252ad1be2c89b69c2b068fc378daa952ba7f163c4a11628f55a4df523b3ef60405160405180910390a461121083838361161d565b505050565b6000600760009054906101000a900473ffffffffffffffffffffffffffffffffffffffff16905081600760006101000a81548173ffffffffffffffffffffffffffffffffffffffff021916908373ffffffffffffffffffffffffffffffffffffffff1602179055508173ffffffffffffffffffffffffffffffffffffffff168173ffffffffffffffffffffffffffffffffffffffff167f8be0079c531659141344cd1fd0a4f28419497f9722a3daafe3b4186f6b6457e060405160405180910390a35050565b8173ffffffffffffffffffffffffffffffffffffffff168373ffffffffffffffffffffffffffffffffffffffff16141561134a576040517f08c379a0000000000000000000000000000000000000000000000000000000008152600401611341906124be565b60405180910390fd5b80600560008573ffffffffffffffffffffffffffffffffffffffff1673ffffffffffffffffffffffffffffffffffffffff16815260200190815260200160002060008473ffffffffffffffffffffffffffffffffffffffff1673ffffffffffffffffffffffffffffffffffffffff16815260200190815260200160002060006101000a81548160ff0219169083151502179055508173ffffffffffffffffffffffffffffffffffffffff168373ffffffffffffffffffffffffffffffffffffffff167f17307eab39ab6107e8899845ad3d59bd9653f200f220920489ca2b5937696c318360405161143b91906123e1565b60405180910390a3505050565b611453848484610fae565b61145f84848484611622565b61149e576040517f08c379a00000000000000000000000000000000000000000000000000000000081526004016114959061241e565b60405180910390fd5b50505050565b606060405180602001604052806000815250905090565b60606114c682610da3565b611505576040517f08c379a00000000000000000000000000000000000000000000000000000000081526004016114fc906125fe565b60405180910390fd5b600061150f6114a4565b9050600081511161152f576040518060200160405280600081525061155a565b80611539846117b9565b60405160200161154a929190612356565b6040516020818303038152906040525b915050919050565b6001816000016000828254019250508190555050565b600081600001549050919050565b6115a0828260405180602001604052806000815250611966565b5050565b6115ad82610da3565b6115ec576040517f08c379a00000000000000000000000000000000000000000000000000000000081526004016115e39061255e565b60405180910390fd5b80600660008481526020019081526020016000209080519060200190611613929190611bbe565b505050565b505050565b505050565b60006116438473ffffffffffffffffffffffffffffffffffffffff166119c1565b156117ac578373ffffffffffffffffffffffffffffffffffffffff1663150b7a0261166c610e0f565b8786866040518563ffffffff1660e01b815260040161168e9493929190612395565b602060405180830381600087803b1580156116a857600080fd5b505af19250505080156116d957506040513d601f19601f820116820180604052508101906116d69190611fbe565b60015b61175c573d8060008114611709576040519150601f19603f3d011682016040523d82523d6000602084013e61170e565b606091505b50600081511415611754576040517f08c379a000000000000000000000000000000000000000000000000000000000815260040161174b9061241e565b60405180910390fd5b805181602001fd5b63150b7a0260e01b7bffffffffffffffffffffffffffffffffffffffffffffffffffffffff1916817bffffffffffffffffffffffffffffffffffffffffffffffffffffffff1916149150506117b1565b600190505b949350505050565b60606000821415611801576040518060400160405280600181526020017f30000000000000000000000000000000000000000000000000000000000000008152509050611961565b600082905060005b6000821461183357808061181c90612917565b915050600a8261182c9190612799565b9150611809565b60008167ffffffffffffffff811115611875577f4e487b7100000000000000000000000000000000000000000000000000000000600052604160045260246000fd5b6040519080825280601f01601f1916602001820160405280156118a75781602001600182028036833780820191505090505b5090505b6000851461195a576001826118c091906127ca565b9150600a856118cf9190612960565b60306118db9190612743565b60f81b818381518110611917577f4e487b7100000000000000000000000000000000000000000000000000000000600052603260045260246000fd5b60200101907effffffffffffffffffffffffffffffffffffffffffffffffffffffffffffff1916908160001a905350600a856119539190612799565b94506118ab565b8093505050505b919050565b61197083836119e4565b61197d6000848484611622565b6119bc576040517f08c379a00000000000000000000000000000000000000000000000000000000081526004016119b39061241e565b60405180910390fd5b505050565b6000808273ffffffffffffffffffffffffffffffffffffffff163b119050919050565b600073ffffffffffffffffffffffffffffffffffffffff168273ffffffffffffffffffffffffffffffffffffffff161415611a54576040517f08c379a0000000000000000000000000000000000000000000000000000000008152600401611a4b9061257e565b60405180910390fd5b611a5d81610da3565b15611a9d576040517f08c379a0000000000000000000000000000000000000000000000000000000008152600401611a949061247e565b60405180910390fd5b611aa960008383611618565b6001600360008473ffffffffffffffffffffffffffffffffffffffff1673ffffffffffffffffffffffffffffffffffffffff1681526020019081526020016000206000828254611af99190612743565b92505081905550816002600083815260200190815260200160002060006101000a81548173ffffffffffffffffffffffffffffffffffffffff021916908373ffffffffffffffffffffffffffffffffffffffff160217905550808273ffffffffffffffffffffffffffffffffffffffff16600073ffffffffffffffffffffffffffffffffffffffff167fddf252ad1be2c89b69c2b068fc378daa952ba7f163c4a11628f55a4df523b3ef60405160405180910390a4611bba6000838361161d565b5050565b828054611bca906128b4565b90600052602060002090601f016020900481019282611bec5760008555611c33565b82601f10611c0557805160ff1916838001178555611c33565b82800160010185558215611c33579182015b82811115611c32578251825591602001919060010190611c17565b5b509050611c409190611c44565b5090565b5b80821115611c5d576000816000905550600101611c45565b5090565b6000611c74611c6f8461269e565b612679565b905082815260208101848484011115611c8c57600080fd5b611c97848285612872565b509392505050565b6000611cb2611cad846126cf565b612679565b905082815260208101848484011115611cca57600080fd5b611cd5848285612872565b509392505050565b600081359050611cec81612f54565b92915050565b600081359050611d0181612f6b565b92915050565b600081359050611d1681612f82565b92915050565b600081519050611d2b81612f82565b92915050565b600082601f830112611d4257600080fd5b8135611d52848260208601611c61565b91505092915050565b600082601f830112611d6c57600080fd5b8135611d7c848260208601611c9f565b91505092915050565b600081359050611d9481612f99565b92915050565b600060208284031215611dac57600080fd5b6000611dba84828501611cdd565b91505092915050565b60008060408385031215611dd657600080fd5b6000611de485828601611cdd565b9250506020611df585828601611cdd565b9150509250929050565b600080600060608486031215611e1457600080fd5b6000611e2286828701611cdd565b9350506020611e3386828701611cdd565b9250506040611e4486828701611d85565b9150509250925092565b60008060008060808587031215611e6457600080fd5b6000611e7287828801611cdd565b9450506020611e8387828801611cdd565b9350506040611e9487828801611d85565b925050606085013567ffffffffffffffff811115611eb157600080fd5b611ebd87828801611d31565b91505092959194509250565b60008060408385031215611edc57600080fd5b6000611eea85828601611cdd565b9250506020611efb85828601611cf2565b9150509250929050565b60008060408385031215611f1857600080fd5b6000611f2685828601611cdd565b925050602083013567ffffffffffffffff811115611f4357600080fd5b611f4f85828601611d5b565b9150509250929050565b60008060408385031215611f6c57600080fd5b6000611f7a85828601611cdd565b9250506020611f8b85828601611d85565b9150509250929050565b600060208284031215611fa757600080fd5b6000611fb584828501611d07565b91505092915050565b600060208284031215611fd057600080fd5b6000611fde84828501611d1c565b91505092915050565b600060208284031215611ff957600080fd5b600061200784828501611d85565b91505092915050565b612019816127fe565b82525050565b61202881612810565b82525050565b600061203982612700565b6120438185612716565b9350612053818560208601612881565b61205c81612a4d565b840191505092915050565b60006120728261270b565b61207c8185612727565b935061208c818560208601612881565b61209581612a4d565b840191505092915050565b60006120ab8261270b565b6120b58185612738565b93506120c5818560208601612881565b80840191505092915050565b60006120de603283612727565b91506120e982612a5e565b604082019050919050565b6000612101602683612727565b915061210c82612aad565b604082019050919050565b6000612124602583612727565b915061212f82612afc565b604082019050919050565b6000612147601c83612727565b915061215282612b4b565b602082019050919050565b600061216a602483612727565b915061217582612b74565b604082019050919050565b600061218d601983612727565b915061219882612bc3565b602082019050919050565b60006121b0602c83612727565b91506121bb82612bec565b604082019050919050565b60006121d3603883612727565b91506121de82612c3b565b604082019050919050565b60006121f6602a83612727565b915061220182612c8a565b604082019050919050565b6000612219602983612727565b915061222482612cd9565b604082019050919050565b600061223c602e83612727565b915061224782612d28565b604082019050919050565b600061225f602083612727565b915061226a82612d77565b602082019050919050565b6000612282603183612727565b915061228d82612da0565b604082019050919050565b60006122a5602c83612727565b91506122b082612def565b604082019050919050565b60006122c8602083612727565b91506122d382612e3e565b602082019050919050565b60006122eb602f83612727565b91506122f682612e67565b604082019050919050565b600061230e602183612727565b915061231982612eb6565b604082019050919050565b6000612331603183612727565b915061233c82612f05565b604082019050919050565b61235081612868565b82525050565b600061236282856120a0565b915061236e82846120a0565b91508190509392505050565b600060208201905061238f6000830184612010565b92915050565b60006080820190506123aa6000830187612010565b6123b76020830186612010565b6123c46040830185612347565b81810360608301526123d6818461202e565b905095945050505050565b60006020820190506123f6600083018461201f565b92915050565b600060208201905081810360008301526124168184612067565b905092915050565b60006020820190508181036000830152612437816120d1565b9050919050565b60006020820190508181036000830152612457816120f4565b9050919050565b6000602082019050818103600083015261247781612117565b9050919050565b600060208201905081810360008301526124978161213a565b9050919050565b600060208201905081810360008301526124b78161215d565b9050919050565b600060208201905081810360008301526124d781612180565b9050919050565b600060208201905081810360008301526124f7816121a3565b9050919050565b60006020820190508181036000830152612517816121c6565b9050919050565b60006020820190508181036000830152612537816121e9565b9050919050565b600060208201905081810360008301526125578161220c565b9050919050565b600060208201905081810360008301526125778161222f565b9050919050565b6000602082019050818103600083015261259781612252565b9050919050565b600060208201905081810360008301526125b781612275565b9050919050565b600060208201905081810360008301526125d781612298565b9050919050565b600060208201905081810360008301526125f7816122bb565b9050919050565b60006020820190508181036000830152612617816122de565b9050919050565b6000602082019050818103600083015261263781612301565b9050919050565b6000602082019050818103600083015261265781612324565b9050919050565b60006020820190506126736000830184612347565b92915050565b6000612683612694565b905061268f82826128e6565b919050565b6000604051905090565b600067ffffffffffffffff8211156126b9576126b8612a1e565b5b6126c282612a4d565b9050602081019050919050565b600067ffffffffffffffff8211156126ea576126e9612a1e565b5b6126f382612a4d565b9050602081019050919050565b600081519050919050565b600081519050919050565b600082825260208201905092915050565b600082825260208201905092915050565b600081905092915050565b600061274e82612868565b915061275983612868565b9250827fffffffffffffffffffffffffffffffffffffffffffffffffffffffffffffffff0382111561278e5761278d612991565b5b828201905092915050565b60006127a482612868565b91506127af83612868565b9250826127bf576127be6129c0565b5b828204905092915050565b60006127d582612868565b91506127e083612868565b9250828210156127f3576127f2612991565b5b828203905092915050565b600061280982612848565b9050919050565b60008115159050919050565b60007fffffffff0000000000000000000000000000000000000000000000000000000082169050919050565b600073ffffffffffffffffffffffffffffffffffffffff82169050919050565b6000819050919050565b82818337600083830152505050565b60005b8381101561289f578082015181840152602081019050612884565b838111156128ae576000848401525b50505050565b600060028204905060018216806128cc57607f821691505b602082108114156128e0576128df6129ef565b5b50919050565b6128ef82612a4d565b810181811067ffffffffffffffff8211171561290e5761290d612a1e565b5b80604052505050565b600061292282612868565b91507fffffffffffffffffffffffffffffffffffffffffffffffffffffffffffffffff82141561295557612954612991565b5b600182019050919050565b600061296b82612868565b915061297683612868565b925082612986576129856129c0565b5b828206905092915050565b7f4e487b7100000000000000000000000000000000000000000000000000000000600052601160045260246000fd5b7f4e487b7100000000000000000000000000000000000000000000000000000000600052601260045260246000fd5b7f4e487b7100000000000000000000000000000000000000000000000000000000600052602260045260246000fd5b7f4e487b7100000000000000000000000000000000000000000000000000000000600052604160045260246000fd5b6000601f19601f8301169050919050565b7f4552433732313a207472616e7366657220746f206e6f6e20455243373231526560008201527f63656976657220696d706c656d656e7465720000000000000000000000000000602082015250565b7f4f776e61626c653a206e6577206f776e657220697320746865207a65726f206160008201527f6464726573730000000000000000000000000000000000000000000000000000602082015250565b7f4552433732313a207472616e736665722066726f6d20696e636f72726563742060008201527f6f776e6572000000000000000000000000000000000000000000000000000000602082015250565b7f4552433732313a20746f6b656e20616c7265616479206d696e74656400000000600082015250565b7f4552433732313a207472616e7366657220746f20746865207a65726f2061646460008201527f7265737300000000000000000000000000000000000000000000000000000000602082015250565b7f4552433732313a20617070726f766520746f2063616c6c657200000000000000600082015250565b7f4552433732313a206f70657261746f7220717565727920666f72206e6f6e657860008201527f697374656e7420746f6b656e0000000000000000000000000000000000000000602082015250565b7f4552433732313a20617070726f76652063616c6c6572206973206e6f74206f7760008201527f6e6572206e6f7220617070726f76656420666f7220616c6c0000000000000000602082015250565b7f4552433732313a2062616c616e636520717565727920666f7220746865207a6560008201527f726f206164647265737300000000000000000000000000000000000000000000602082015250565b7f4552433732313a206f776e657220717565727920666f72206e6f6e657869737460008201527f656e7420746f6b656e0000000000000000000000000000000000000000000000602082015250565b7f45524337323155524953746f726167653a2055524920736574206f66206e6f6e60008201527f6578697374656e7420746f6b656e000000000000000000000000000000000000602082015250565b7f4552433732313a206d696e7420746f20746865207a65726f2061646472657373600082015250565b7f45524337323155524953746f726167653a2055524920717565727920666f722060008201527f6e6f6e6578697374656e7420746f6b656e000000000000000000000000000000602082015250565b7f4552433732313a20617070726f76656420717565727920666f72206e6f6e657860008201527f697374656e7420746f6b656e0000000000000000000000000000000000000000602082015250565b7f4f776e61626c653a2063616c6c6572206973206e6f7420746865206f776e6572600082015250565b7f4552433732314d657461646174613a2055524920717565727920666f72206e6f60008201527f6e6578697374656e7420746f6b656e0000000000000000000000000000000000602082015250565b7f4552433732313a20617070726f76616c20746f2063757272656e74206f776e6560008201527f7200000000000000000000000000000000000000000000000000000000000000602082015250565b7f4552433732313a207472616e736665722063616c6c6572206973206e6f74206f60008201527f776e6572206e6f7220617070726f766564000000000000000000000000000000602082015250565b612f5d816127fe565b8114612f6857600080fd5b50565b612f7481612810565b8114612f7f57600080fd5b50565b612f8b8161281c565b8114612f9657600080fd5b50565b612fa281612868565b8114612fad57600080fd5b5056fea264697066735822122005ffad0711d9b84b61c2f9692eb04f938c01c40327cb3fad6b28965a571a4f2864736f6c63430008010033",
  "linkReferences": {},
  "deployedLinkReferences": {}
}